{"abi":[{"type":"function","name":"companies","inputs":[{"name":"","type":"uint256","internalType":"uint256"}],"outputs":[{"name":"owner","type":"address","internalType":"address"},{"name":"metadataHash","type":"string","internalType":"string"},{"name":"createdAt","type":"uint256","internalType":"uint256"},{"name":"exists","type":"bool","internalType":"bool"}],"stateMutability":"view"},{"type":"function","name":"companyCount","inputs":[],"outputs":[{"name":"","type":"uint256","internalType":"uint256"}],"stateMutability":"view"},{"type":"function","name":"getCompany","inputs":[{"name":"companyId","type":"uint256","internalType":"uint256"}],"outputs":[{"name":"owner","type":"address","internalType":"address"},{"name":"metadataHash","type":"string","internalType":"string"},{"name":"createdAt","type":"uint256","internalType":"uint256"}],"stateMutability":"view"},{"type":"function","name":"getOwnerCompanies","inputs":[{"name":"owner","type":"address","internalType":"address"}],"outputs":[{"name":"","type":"uint256[]","internalType":"uint256[]"}],"stateMutability":"view"},{"type":"function","name":"ownerCompanies","inputs":[{"name":"","type":"address","internalType":"address"},{"name":"","type":"uint256","internalType":"uint256"}],"outputs":[{"name":"","type":"uint256","internalType":"uint256"}],"stateMutability":"view"},{"type":"function","name":"registerCompany","inputs":[{"name":"metadataHash","type":"string","internalType":"string"}],"outputs":[{"name":"","type":"uint256","internalType":"uint256"}],"stateMutability":"nonpayable"},{"type":"function","name":"setCompanyMeta","inputs":[{"name":"companyId","type":"uint256","internalType":"uint256"},{"name":"metadataHash","type":"string","internalType":"string"}],"outputs":[],"stateMutability":"nonpayable"},{"type":"function","name":"transferOwnership","inputs":[{"name":"companyId","type":"uint256","internalType":"uint256"},{"name":"newOwner","type":"address","internalType":"address"}],"outputs":[],"stateMutability":"nonpayable"},{"type":"event","name":"CompanyMetadataUpdated","inputs":[{"name":"companyId","type":"uint256","indexed":true,"internalType":"uint256"},{"name":"metadataHash","type":"string","indexed":false,"internalType":"string"}],"anonymous":false},{"type":"event","name":"CompanyOwnerUpdated","inputs":[{"name":"companyId","type":"uint256","indexed":true,"internalType":"uint256"},{"name":"oldOwner","type":"address","indexed":true,"internalType":"address"},{"name":"newOwner","type":"address","indexed":true,"internalType":"address"}],"anonymous":false},{"type":"event","name":"CompanyRegistered","inputs":[{"name":"companyId","type":"uint256","indexed":true,"internalType":"uint256"},{"name":"owner","type":"address","indexed":true,"internalType":"address"},{"name":"metadataHash","type":"string","indexed":false,"internalType":"string"}],"anonymous":false}],"bytecode":{"object":"0x6080604052348015600e575f5ffd5b50610b628061001c5f395ff3fe608060405234801561000f575f5ffd5b5060043610610084575f3560e01c806357d139171161005857806357d13917146100f95780635c73a9ac1461011b5780638e75dd471461012e578063e0b3522a14610136575f5ffd5b8062544194146100885780632813d19d146100ae57806329507f73146100d15780634c367f9d146100e6575b5f5ffd5b61009b610096366004610787565b610156565b6040519081526020015b60405180910390f35b6100c16100bc3660046107c1565b610254565b6040516100a59493929190610806565b6100e46100df36600461085c565b610311565b005b6100e46100f4366004610886565b61044d565b61010c6101073660046107c1565b610531565b6040516100a5939291906108ca565b61009b6101293660046108fd565b610654565b61009b5f5481565b610149610144366004610925565b61067f565b6040516100a59190610945565b5f8054818061016483610987565b90915550505f805460408051608081018252338152602080820187815242838501526001606084018190528587529182905292909420815181546001600160a01b0319166001600160a01b03909116178155915192939092908201906101ca9082610a2f565b506040828101516002838101919091556060909301516003909201805460ff191692151592909217909155335f818152602093845282812080546001810182559082529390209092018390555182907fb942b64496751623fe8e67d13435346a352981ddb97189053829c967cc046df990610246908790610aea565b60405180910390a392915050565b600160208190525f9182526040909120805491810180546001600160a01b0390931692610280906109ab565b80601f01602080910402602001604051908101604052809291908181526020018280546102ac906109ab565b80156102f75780601f106102ce576101008083540402835291602001916102f7565b820191905f5260205f20905b8154815290600101906020018083116102da57829003601f168201915b50505050600283015460039093015491929160ff16905084565b5f82815260016020526040902060030154829060ff1661034c5760405162461bcd60e51b815260040161034390610afc565b60405180910390fd5b5f818152600160205260409020546001600160a01b031633146103a55760405162461bcd60e51b81526020600482015260116024820152702737ba1031b7b6b830b73c9037bbb732b960791b6044820152606401610343565b6001600160a01b0382166103ef5760405162461bcd60e51b815260206004820152601160248201527024b73b30b634b2103732bb9037bbb732b960791b6044820152606401610343565b5f8381526001602052604080822080546001600160a01b031981166001600160a01b038781169182179093559251911692839187917f57c0d76f756a6c701fa3071b1ee96a6baf86ef5cda5110cd61d4fcf34e0c79d391a450505050565b5f82815260016020526040902060030154829060ff1661047f5760405162461bcd60e51b815260040161034390610afc565b5f818152600160205260409020546001600160a01b031633146104d85760405162461bcd60e51b81526020600482015260116024820152702737ba1031b7b6b830b73c9037bbb732b960791b6044820152606401610343565b5f838152600160208190526040909120016104f38382610a2f565b50827fcf37213a36af8887e5535f462f3b43ce575421795213425dee323c66303dde8c836040516105249190610aea565b60405180910390a2505050565b5f81815260016020526040812060030154606090829060ff166105665760405162461bcd60e51b815260040161034390610afc565b5f84815260016020818152604080842081516080810190925280546001600160a01b0316825292830180549193928401916105a0906109ab565b80601f01602080910402602001604051908101604052809291908181526020018280546105cc906109ab565b80156106175780601f106105ee57610100808354040283529160200191610617565b820191905f5260205f20905b8154815290600101906020018083116105fa57829003601f168201915b5050509183525050600282015460208083019190915260039092015460ff1615156040918201528251918301519201519097919650945092505050565b6002602052815f5260405f20818154811061066d575f80fd5b905f5260205f20015f91509150505481565b6001600160a01b0381165f908152600260209081526040918290208054835181840281018401909452808452606093928301828280156106dc57602002820191905f5260205f20905b8154815260200190600101908083116106c8575b50505050509050919050565b634e487b7160e01b5f52604160045260245ffd5b5f82601f83011261070b575f5ffd5b813567ffffffffffffffff811115610725576107256106e8565b604051601f8201601f19908116603f0116810167ffffffffffffffff81118282101715610754576107546106e8565b60405281815283820160200185101561076b575f5ffd5b816020850160208301375f918101602001919091529392505050565b5f60208284031215610797575f5ffd5b813567ffffffffffffffff8111156107ad575f5ffd5b6107b9848285016106fc565b949350505050565b5f602082840312156107d1575f5ffd5b5035919050565b5f81518084528060208401602086015e5f602082860101526020601f19601f83011685010191505092915050565b6001600160a01b03851681526080602082018190525f90610829908301866107d8565b60408301949094525090151560609091015292915050565b80356001600160a01b0381168114610857575f5ffd5b919050565b5f5f6040838503121561086d575f5ffd5b8235915061087d60208401610841565b90509250929050565b5f5f60408385031215610897575f5ffd5b82359150602083013567ffffffffffffffff8111156108b4575f5ffd5b6108c0858286016106fc565b9150509250929050565b6001600160a01b03841681526060602082018190525f906108ed908301856107d8565b9050826040830152949350505050565b5f5f6040838503121561090e575f5ffd5b61091783610841565b946020939093013593505050565b5f60208284031215610935575f5ffd5b61093e82610841565b9392505050565b602080825282518282018190525f918401906040840190835b8181101561097c57835183526020938401939092019160010161095e565b509095945050505050565b5f600182016109a457634e487b7160e01b5f52601160045260245ffd5b5060010190565b600181811c908216806109bf57607f821691505b6020821081036109dd57634e487b7160e01b5f52602260045260245ffd5b50919050565b601f821115610a2a57805f5260205f20601f840160051c81016020851015610a085750805b601f840160051c820191505b81811015610a27575f8155600101610a14565b50505b505050565b815167ffffffffffffffff811115610a4957610a496106e8565b610a5d81610a5784546109ab565b846109e3565b6020601f821160018114610a8f575f8315610a785750848201515b5f19600385901b1c1916600184901b178455610a27565b5f84815260208120601f198516915b82811015610abe5787850151825560209485019460019092019101610a9e565b5084821015610adb57868401515f19600387901b60f8161c191681555b50505050600190811b01905550565b602081525f61093e60208301846107d8565b60208082526016908201527510dbdb5c185b9e48191bd95cc81b9bdd08195e1a5cdd60521b60408201526060019056fea2646970667358221220a34236e709f0beb9b5fb014c562ad4559048dc277284a7e7b9458915dda599fc64736f6c634300081e0033","linkReferences":{}},"methodIdentifiers":{"companies(uint256)":"2813d19d","companyCount()":"8e75dd47","getCompany(uint256)":"57d13917","getOwnerCompanies(address)":"e0b3522a","ownerCompanies(address,uint256)":"5c73a9ac","registerCompany(string)":"00544194","setCompanyMeta(uint256,string)":"4c367f9d","transferOwnership(uint256,address)":"29507f73"},"id":0}