{"abi":[{"type":"constructor","inputs":[{"name":"_companyRegistry","type":"address","internalType":"address"}],"stateMutability":"nonpayable"},{"type":"function","name":"EURC","inputs":[],"outputs":[{"name":"","type":"address","internalType":"address"}],"stateMutability":"view"},{"type":"function","name":"EURC_DECIMALS","inputs":[],"outputs":[{"name":"","type":"uint256","internalType":"uint256"}],"stateMutability":"view"},{"type":"function","name":"USDC","inputs":[],"outputs":[{"name":"","type":"address","internalType":"address"}],"stateMutability":"view"},{"type":"function","name":"USDC_DECIMALS","inputs":[],"outputs":[{"name":"","type":"uint256","internalType":"uint256"}],"stateMutability":"view"},{"type":"function","name":"addEmployee","inputs":[{"name":"companyId","type":"uint256","internalType":"uint256"},{"name":"wallet","type":"address","internalType":"address"},{"name":"basePay","type":"uint256","internalType":"uint256"},{"name":"token","type":"address","internalType":"address"},{"name":"cycle","type":"uint8","internalType":"enum PayrollManager.PayCycle"}],"outputs":[],"stateMutability":"nonpayable"},{"type":"function","name":"batchPayments","inputs":[{"name":"","type":"uint256","internalType":"uint256"},{"name":"","type":"uint256","internalType":"uint256"}],"outputs":[{"name":"batchId","type":"uint256","internalType":"uint256"},{"name":"employee","type":"address","internalType":"address"},{"name":"amount","type":"uint256","internalType":"uint256"},{"name":"token","type":"address","internalType":"address"},{"name":"paid","type":"bool","internalType":"bool"},{"name":"paidAt","type":"uint256","internalType":"uint256"}],"stateMutability":"view"},{"type":"function","name":"companyEmployees","inputs":[{"name":"","type":"uint256","internalType":"uint256"},{"name":"","type":"uint256","internalType":"uint256"}],"outputs":[{"name":"wallet","type":"address","internalType":"address"},{"name":"basePay","type":"uint256","internalType":"uint256"},{"name":"payToken","type":"address","internalType":"address"},{"name":"payCycle","type":"uint8","internalType":"enum PayrollManager.PayCycle"},{"name":"active","type":"bool","internalType":"bool"},{"name":"addedAt","type":"uint256","internalType":"uint256"}],"stateMutability":"view"},{"type":"function","name":"companyRegistry","inputs":[],"outputs":[{"name":"","type":"address","internalType":"contract CompanyRegistry"}],"stateMutability":"view"},{"type":"function","name":"createPayrollBatch","inputs":[{"name":"companyId","type":"uint256","internalType":"uint256"},{"name":"period","type":"uint256","internalType":"uint256"},{"name":"token","type":"address","internalType":"address"}],"outputs":[{"name":"","type":"uint256","internalType":"uint256"}],"stateMutability":"nonpayable"},{"type":"function","name":"deactivateEmployee","inputs":[{"name":"companyId","type":"uint256","internalType":"uint256"},{"name":"employeeIndex","type":"uint256","internalType":"uint256"}],"outputs":[],"stateMutability":"nonpayable"},{"type":"function","name":"employeePayments","inputs":[{"name":"","type":"address","internalType":"address"},{"name":"","type":"uint256","internalType":"uint256"}],"outputs":[{"name":"batchId","type":"uint256","internalType":"uint256"},{"name":"employee","type":"address","internalType":"address"},{"name":"amount","type":"uint256","internalType":"uint256"},{"name":"token","type":"address","internalType":"address"},{"name":"paid","type":"bool","internalType":"bool"},{"name":"paidAt","type":"uint256","internalType":"uint256"}],"stateMutability":"view"},{"type":"function","name":"executePayroll","inputs":[{"name":"batchId","type":"uint256","internalType":"uint256"}],"outputs":[],"stateMutability":"nonpayable"},{"type":"function","name":"getBatchPayments","inputs":[{"name":"batchId","type":"uint256","internalType":"uint256"}],"outputs":[{"name":"","type":"tuple[]","internalType":"struct PayrollManager.PaymentRecord[]","components":[{"name":"batchId","type":"uint256","internalType":"uint256"},{"name":"employee","type":"address","internalType":"address"},{"name":"amount","type":"uint256","internalType":"uint256"},{"name":"token","type":"address","internalType":"address"},{"name":"paid","type":"bool","internalType":"bool"},{"name":"paidAt","type":"uint256","internalType":"uint256"}]}],"stateMutability":"view"},{"type":"function","name":"getCompanyEmployees","inputs":[{"name":"companyId","type":"uint256","internalType":"uint256"}],"outputs":[{"name":"","type":"tuple[]","internalType":"struct PayrollManager.Employee[]","components":[{"name":"wallet","type":"address","internalType":"address"},{"name":"basePay","type":"uint256","internalType":"uint256"},{"name":"payToken","type":"address","internalType":"address"},{"name":"payCycle","type":"uint8","internalType":"enum PayrollManager.PayCycle"},{"name":"active","type":"bool","internalType":"bool"},{"name":"addedAt","type":"uint256","internalType":"uint256"}]}],"stateMutability":"view"},{"type":"function","name":"getEmployeeCount","inputs":[{"name":"companyId","type":"uint256","internalType":"uint256"}],"outputs":[{"name":"count","type":"uint256","internalType":"uint256"},{"name":"activeCount","type":"uint256","internalType":"uint256"}],"stateMutability":"view"},{"type":"function","name":"getEmployeePayments","inputs":[{"name":"employeeAddress","type":"address","internalType":"address"}],"outputs":[{"name":"","type":"tuple[]","internalType":"struct PayrollManager.PaymentRecord[]","components":[{"name":"batchId","type":"uint256","internalType":"uint256"},{"name":"employee","type":"address","internalType":"address"},{"name":"amount","type":"uint256","internalType":"uint256"},{"name":"token","type":"address","internalType":"address"},{"name":"paid","type":"bool","internalType":"bool"},{"name":"paidAt","type":"uint256","internalType":"uint256"}]}],"stateMutability":"view"},{"type":"function","name":"payrollBatchCount","inputs":[],"outputs":[{"name":"","type":"uint256","internalType":"uint256"}],"stateMutability":"view"},{"type":"function","name":"payrollBatches","inputs":[{"name":"","type":"uint256","internalType":"uint256"}],"outputs":[{"name":"companyId","type":"uint256","internalType":"uint256"},{"name":"period","type":"uint256","internalType":"uint256"},{"name":"token","type":"address","internalType":"address"},{"name":"totalAmount","type":"uint256","internalType":"uint256"},{"name":"executed","type":"bool","internalType":"bool"},{"name":"executedAt","type":"uint256","internalType":"uint256"},{"name":"employeeCount","type":"uint256","internalType":"uint256"}],"stateMutability":"view"},{"type":"function","name":"updateEmployee","inputs":[{"name":"companyId","type":"uint256","internalType":"uint256"},{"name":"employeeIndex","type":"uint256","internalType":"uint256"},{"name":"basePay","type":"uint256","internalType":"uint256"},{"name":"token","type":"address","internalType":"address"},{"name":"cycle","type":"uint8","internalType":"enum PayrollManager.PayCycle"}],"outputs":[],"stateMutability":"nonpayable"},{"type":"event","name":"EmployeeAdded","inputs":[{"name":"companyId","type":"uint256","indexed":true,"internalType":"uint256"},{"name":"employee","type":"address","indexed":true,"internalType":"address"},{"name":"basePay","type":"uint256","indexed":false,"internalType":"uint256"},{"name":"token","type":"address","indexed":false,"internalType":"address"},{"name":"payCycle","type":"uint8","indexed":false,"internalType":"enum PayrollManager.PayCycle"}],"anonymous":false},{"type":"event","name":"EmployeeDeactivated","inputs":[{"name":"companyId","type":"uint256","indexed":true,"internalType":"uint256"},{"name":"employee","type":"address","indexed":true,"internalType":"address"}],"anonymous":false},{"type":"event","name":"EmployeeUpdated","inputs":[{"name":"companyId","type":"uint256","indexed":true,"internalType":"uint256"},{"name":"employee","type":"address","indexed":true,"internalType":"address"},{"name":"basePay","type":"uint256","indexed":false,"internalType":"uint256"},{"name":"token","type":"address","indexed":false,"internalType":"address"},{"name":"payCycle","type":"uint8","indexed":false,"internalType":"enum PayrollManager.PayCycle"}],"anonymous":false},{"type":"event","name":"PaymentMade","inputs":[{"name":"batchId","type":"uint256","indexed":true,"internalType":"uint256"},{"name":"employee","type":"address","indexed":true,"internalType":"address"},{"name":"amount","type":"uint256","indexed":false,"internalType":"uint256"},{"name":"token","type":"address","indexed":false,"internalType":"address"}],"anonymous":false},{"type":"event","name":"PayrollBatchCreated","inputs":[{"name":"batchId","type":"uint256","indexed":true,"internalType":"uint256"},{"name":"companyId","type":"uint256","indexed":true,"internalType":"uint256"},{"name":"period","type":"uint256","indexed":false,"internalType":"uint256"},{"name":"token","type":"address","indexed":false,"internalType":"address"},{"name":"totalAmount","type":"uint256","indexed":false,"internalType":"uint256"},{"name":"employeeCount","type":"uint256","indexed":false,"internalType":"uint256"}],"anonymous":false},{"type":"event","name":"PayrollExecuted","inputs":[{"name":"batchId","type":"uint256","indexed":true,"internalType":"uint256"},{"name":"companyId","type":"uint256","indexed":true,"internalType":"uint256"},{"name":"token","type":"address","indexed":false,"internalType":"address"},{"name":"totalAmount","type":"uint256","indexed":false,"internalType":"uint256"},{"name":"employeeCount","type":"uint256","indexed":false,"internalType":"uint256"}],"anonymous":false}],"bytecode":{"object":"0x6080604052348015600e575f5ffd5b50604051612098380380612098833981016040819052602b9160a7565b6001600160a01b03811660845760405162461bcd60e51b815260206004820152601860248201527f496e76616c696420726567697374727920616464726573730000000000000000604482015260640160405180910390fd5b5f80546001600160a01b0319166001600160a01b039290921691909117905560d2565b5f6020828403121560b6575f5ffd5b81516001600160a01b038116811460cb575f5ffd5b9392505050565b611fb9806100df5f395ff3fe608060405234801561000f575f5ffd5b506004361061011c575f3560e01c80635fbf253e116100a957806389a302711161006e57806389a302711461032e578063aabfa37d14610351578063c1419def14610306578063c51aba2b1461036c578063e1948c251461037e575f5ffd5b80635fbf253e146102bb57806364d182a4146102ce57806367335576146102e15780637b4e2be7146103065780638363dcd71461030e575f5ffd5b80631a5bdffd116100ef5780631a5bdffd146102385780631d49ff5d1461024b57806340823c2e146102605780634851319c146102885780635bd035bb146102a8575f5ffd5b806302ebf37e146101205780630c1384be146101c257806312c52d3d1461020e578063135f5faf14610225575b5f5ffd5b61017861012e366004611a9e565b600260208190525f918252604090912080546001820154928201546003830154600484015460058501546006909501549395946001600160a01b0390931693919260ff9091169187565b6040805197885260208801969096526001600160a01b039094169486019490945260608501919091521515608084015260a083019190915260c082015260e0015b60405180910390f35b6101d56101d0366004611acc565b610391565b604080519687526001600160a01b03958616602088015286019390935292166060840152901515608083015260a082015260c0016101b9565b61021760055481565b6040519081526020016101b9565b610217610233366004611af6565b6103f4565b6101d5610246366004611b2c565b610ac0565b61025e610259366004611b5f565b610ad9565b005b61027361026e366004611a9e565b610d46565b604080519283526020830191909152016101b9565b61029b610296366004611bad565b610e82565b6040516101b99190611bcf565b61025e6102b6366004611c58565b610f41565b61025e6102c9366004611a9e565b611234565b61025e6102dc366004611b2c565b61173a565b6102f46102ef366004611b2c565b6118a6565b6040516101b996959493929190611cc9565b610217600681565b61032161031c366004611a9e565b61190d565b6040516101b99190611d09565b610339601b60991b81565b6040516001600160a01b0390911681526020016101b9565b6103397389b50855aa3be2f677cd6303cec089b5f319d72a81565b5f54610339906001600160a01b031681565b61029b61038c366004611a9e565b6119f7565b6004602052815f5260405f2081815481106103aa575f80fd5b5f918252602090912060059091020180546001820154600283015460038401546004909401549295506001600160a01b0391821694509290811691600160a01b90910460ff169086565b5f80546040516357d1391760e01b815260048101869052859183916001600160a01b03909116906357d13917906024015f60405180830381865afa15801561043e573d5f5f3e3d5ffd5b505050506040513d5f823e601f3d908101601f191682016040526104659190810190611da5565b50909150506001600160a01b038116331461049b5760405162461bcd60e51b815260040161049290611e77565b60405180910390fd5b836001600160a01b038116601b60991b14806104d357506001600160a01b0381167389b50855aa3be2f677cd6303cec089b5f319d72a145b6104ef5760405162461bcd60e51b815260040161049290611ea2565b5f87815260016020908152604080832080548251818502810185019093528083529192909190849084015b828210156105d2575f8481526020908190206040805160c0810182526004860290920180546001600160a01b03908116845260018201549484019490945260028101549384169183019190915290916060830190600160a01b900460ff16600381111561058957610589611c95565b600381111561059a5761059a611c95565b81526020016002820160159054906101000a900460ff161515151581526020016003820154815250508152602001906001019061051a565b5050505090505f81511161061d5760405162461bcd60e51b8152602060048201526012602482015271139bc8195b5c1b1bde59595cc8199bdd5b9960721b6044820152606401610492565b5f80805b83518110156106c85783818151811061063c5761063c611ec9565b60200260200101516080015180156106825750886001600160a01b031684828151811061066b5761066b611ec9565b6020026020010151604001516001600160a01b0316145b156106c05783818151811061069957610699611ec9565b602002602001015160200151836106b09190611ef1565b9250816106bc81611f0a565b9250505b600101610621565b505f82116107235760405162461bcd60e51b815260206004820152602260248201527f4e6f2061637469766520656d706c6f7965657320666f72207468697320746f6b60448201526132b760f11b6064820152608401610492565b5f81116107685760405162461bcd60e51b81526020600482015260136024820152724e6f2061637469766520656d706c6f7965657360681b6044820152606401610492565b60058054905f61077783611f0a565b9091555050600580546040805160e0810182528d815260208082018e81526001600160a01b038e8116848601908152606085018a81525f6080870181815260a0880182815260c089018d81528b84526002988990529983209851895595516001890155925195870180546001600160a01b0319169690941695909517909255905160038501555160048401805460ff191691151591909117905551948201949094559051600690910155905b8451811015610a5d5784818151811061083e5761083e611ec9565b60200260200101516080015180156108845750896001600160a01b031685828151811061086d5761086d611ec9565b6020026020010151604001516001600160a01b0316145b15610a55575f6040518060c001604052808481526020018784815181106108ad576108ad611ec9565b60200260200101515f01516001600160a01b031681526020018784815181106108d8576108d8611ec9565b60209081029190910181015181015182526001600160a01b03808f16838301525f60408085018290526060948501829052888252600380855281832080546001818101835591855286852089516005909202019081559588015190860180549186166001600160a01b031990921691909117905590860151600285015593850151938301805460808701511515600160a01b026001600160a81b031990911695909316949094179190911790925560a08301516004918201558851929350918890859081106109a9576109a9611ec9565b602090810291909101810151516001600160a01b0390811683528282019390935260409182015f9081208054600180820183559183529183902086516005909302019182559185015191810180546001600160a01b0319169285169290921790915590830151600282015560608301516003820180546080860151929094166001600160a81b031990941693909317600160a01b911515919091021790915560a0909101516004909101555b600101610823565b50604080518b81526001600160a01b038b166020820152908101849052606081018390528b9082907feba8a5df1df5acb780acbf792ff8755a921294fdd50422cb3af66fd361cb2a2b9060800160405180910390a39a9950505050505050505050565b6003602052815f5260405f2081815481106103aa575f80fd5b5f80546040516357d1391760e01b8152600481018890528792916001600160a01b0316906357d13917906024015f60405180830381865afa158015610b20573d5f5f3e3d5ffd5b505050506040513d5f823e601f3d908101601f19168201604052610b479190810190611da5565b50909150506001600160a01b0381163314610b745760405162461bcd60e51b815260040161049290611e77565b836001600160a01b038116601b60991b1480610bac57506001600160a01b0381167389b50855aa3be2f677cd6303cec089b5f319d72a145b610bc85760405162461bcd60e51b815260040161049290611ea2565b5f888152600160205260409020548710610c1d5760405162461bcd60e51b8152602060048201526016602482015275092dcecc2d8d2c840cadae0d8def2caca40d2dcc8caf60531b6044820152606401610492565b5f8611610c6c5760405162461bcd60e51b815260206004820152601f60248201527f4261736520706179206d7573742062652067726561746572207468616e2030006044820152606401610492565b5f888152600160205260408120805489908110610c8b57610c8b611ec9565b5f918252602090912060016004909202019081018890556002810180546001600160a01b0389166001600160a01b031982168117835592935087926001600160a81b031990911617600160a01b836003811115610cea57610cea611c95565b021790555080546040516001600160a01b03909116908a907f94b2e55596c822e413e5343cb422c2c537cc5395a3e29678d242da25f3682aa390610d33908b908b908b90611f22565b60405180910390a3505050505050505050565b5f818152600160209081526040808320805482518185028101850190935280835284938493929190849084015b82821015610e2b575f8481526020908190206040805160c0810182526004860290920180546001600160a01b03908116845260018201549484019490945260028101549384169183019190915290916060830190600160a01b900460ff166003811115610de257610de2611c95565b6003811115610df357610df3611c95565b81526020016002820160159054906101000a900460ff1615151515815260200160038201548152505081526020019060010190610d73565b5050825195509192505f9150505b8151811015610e7b57818181518110610e5457610e54611ec9565b60200260200101516080015115610e735782610e6f81611f0a565b9350505b600101610e39565b5050915091565b6001600160a01b0381165f908152600460209081526040808320805482518185028101850190935280835260609492939192909184015b82821015610f36575f8481526020908190206040805160c08101825260058602909201805483526001808201546001600160a01b039081168587015260028301549385019390935260038201549283166060850152600160a01b90920460ff16151560808401526004015460a08301529083529092019101610eb9565b505050509050919050565b5f80546040516357d1391760e01b8152600481018890528792916001600160a01b0316906357d13917906024015f60405180830381865afa158015610f88573d5f5f3e3d5ffd5b505050506040513d5f823e601f3d908101601f19168201604052610faf9190810190611da5565b50909150506001600160a01b0381163314610fdc5760405162461bcd60e51b815260040161049290611e77565b836001600160a01b038116601b60991b148061101457506001600160a01b0381167389b50855aa3be2f677cd6303cec089b5f319d72a145b6110305760405162461bcd60e51b815260040161049290611ea2565b6001600160a01b03871661107f5760405162461bcd60e51b8152602060048201526016602482015275496e76616c69642077616c6c6574206164647265737360501b6044820152606401610492565b5f86116110ce5760405162461bcd60e51b815260206004820152601f60248201527f4261736520706179206d7573742062652067726561746572207468616e2030006044820152606401610492565b60015f8981526020019081526020015f206040518060c00160405280896001600160a01b03168152602001888152602001876001600160a01b0316815260200186600381111561112057611120611c95565b81526001602080830182905242604093840152845480830186555f95865294819020845160049096020180546001600160a01b03199081166001600160a01b03978816178255918501519281019290925591830151600282018054938416919095169081178555606084015193949193926001600160a81b03191617600160a01b8360038111156111b3576111b3611c95565b021790555060808201518160020160156101000a81548160ff02191690831515021790555060a082015181600301555050866001600160a01b0316887f77e794043b2054026ef0ca346b253001901af9345387b531233c181c3534e5aa88888860405161122293929190611f22565b60405180910390a35050505050505050565b5f81815260026020526040902060038101546112895760405162461bcd60e51b815260206004820152601460248201527310985d18da08191bd95cc81b9bdd08195e1a5cdd60621b6044820152606401610492565b600481015460ff16156112d75760405162461bcd60e51b815260206004820152601660248201527510985d18da08185b1c9958591e48195e1958dd5d195960521b6044820152606401610492565b5f805482546040516357d1391760e01b81526001600160a01b03909216916357d139179161130b9160040190815260200190565b5f60405180830381865afa158015611325573d5f5f3e3d5ffd5b505050506040513d5f823e601f3d908101601f1916820160405261134c9190810190611da5565b50909150506001600160a01b03811633146113795760405162461bcd60e51b815260040161049290611e77565b600282015460038301546040516370a0823160e01b81523360048201526001600160a01b039092169182906370a0823190602401602060405180830381865afa1580156113c8573d5f5f3e3d5ffd5b505050506040513d601f19601f820116820180604052508101906113ec9190611f4d565b101561143a5760405162461bcd60e51b815260206004820152601a60248201527f496e73756666696369656e7420746f6b656e2062616c616e63650000000000006044820152606401610492565b6003830154604051636eb1769f60e11b81523360048201523060248201526001600160a01b0383169063dd62ed3e90604401602060405180830381865afa158015611487573d5f5f3e3d5ffd5b505050506040513d601f19601f820116820180604052508101906114ab9190611f4d565b10156115155760405162461bcd60e51b815260206004820152603360248201527f496e73756666696369656e7420746f6b656e20616c6c6f77616e63652e20506c60448201527232b0b9b29030b8383937bb32903334b939ba1760691b6064820152608401610492565b5f84815260036020526040812090805b825481101561167c575f83828154811061154157611541611ec9565b905f5260205f20906005020190508060030160149054906101000a900460ff1661167357600181015460028201546040516323b872dd60e01b81523360048201526001600160a01b03928316602482015260448101919091525f918716906323b872dd906064016020604051808303815f875af11580156115c4573d5f5f3e3d5ffd5b505050506040513d601f19601f820116820180604052508101906115e89190611f64565b905080156116715760038201805460ff60a01b1916600160a01b1790554260048301558361161581611f0a565b600184015460028501546003860154604080519283526001600160a01b03918216602084015293985090911692508b917fa5847876d39eddbb835343adf7426cc32b8aaeaee6f9861756bb665d8b46683e910160405180910390a35b505b50600101611525565b505f81116116c45760405162461bcd60e51b8152602060048201526015602482015274139bc81c185e5b595b9d1cc81cdd58d8d959591959605a1b6044820152606401610492565b60048501805460ff19166001179055426005860155845460028601546003870154604080516001600160a01b0390931683526020830191909152810183905287907f9069c15a08b51a1c4f8d2491126f385d2545e815945b7d6d0a4fbcdbc24d69ce9060600160405180910390a3505050505050565b5f80546040516357d1391760e01b8152600481018590528492916001600160a01b0316906357d13917906024015f60405180830381865afa158015611781573d5f5f3e3d5ffd5b505050506040513d5f823e601f3d908101601f191682016040526117a89190810190611da5565b50909150506001600160a01b03811633146117d55760405162461bcd60e51b815260040161049290611e77565b5f84815260016020526040902054831061182a5760405162461bcd60e51b8152602060048201526016602482015275092dcecc2d8d2c840cadae0d8def2caca40d2dcc8caf60531b6044820152606401610492565b5f84815260016020526040812080548590811061184957611849611ec9565b5f918252602082206002600490920201908101805460ff60a81b1916905580546040519193506001600160a01b03169187917f43130e345f4bd4489e9ff7ce7c8b5cf98645fca8554b5ca73228f029bf8b720f9190a35050505050565b6001602052815f5260405f2081815481106118bf575f80fd5b5f91825260209091206004909102018054600182015460028301546003909301546001600160a01b0392831695509093509082169160ff600160a01b8204811692600160a81b909204169086565b606060015f8381526020019081526020015f20805480602002602001604051908101604052809291908181526020015f905b82821015610f36575f8481526020908190206040805160c0810182526004860290920180546001600160a01b03908116845260018201549484019490945260028101549384169183019190915290916060830190600160a01b900460ff1660038111156119ae576119ae611c95565b60038111156119bf576119bf611c95565b81526020016002820160159054906101000a900460ff161515151581526020016003820154815250508152602001906001019061193f565b5f818152600360209081526040808320805482518185028101850190935280835260609492939192909184018215610f36575f8481526020908190206040805160c08101825260058602909201805483526001808201546001600160a01b039081168587015260028301549385019390935260038201549283166060850152600160a01b90920460ff16151560808401526004015460a08301529083529092019101610eb9565b5f60208284031215611aae575f5ffd5b5035919050565b6001600160a01b0381168114611ac9575f5ffd5b50565b5f5f60408385031215611add575f5ffd5b8235611ae881611ab5565b946020939093013593505050565b5f5f5f60608486031215611b08575f5ffd5b83359250602084013591506040840135611b2181611ab5565b809150509250925092565b5f5f60408385031215611b3d575f5ffd5b50508035926020909101359150565b803560048110611b5a575f5ffd5b919050565b5f5f5f5f5f60a08688031215611b73575f5ffd5b8535945060208601359350604086013592506060860135611b9381611ab5565b9150611ba160808701611b4c565b90509295509295909350565b5f60208284031215611bbd575f5ffd5b8135611bc881611ab5565b9392505050565b602080825282518282018190525f918401906040840190835b81811015611c4d578351805184526020808201516001600160a01b0390811682870152604080840151908701526060808401519091169086015260808083015115159086015260a091820151918501919091529093019260c090920191600101611be8565b509095945050505050565b5f5f5f5f5f60a08688031215611c6c575f5ffd5b853594506020860135611c7e81611ab5565b9350604086013592506060860135611b9381611ab5565b634e487b7160e01b5f52602160045260245ffd5b60048110611cc557634e487b7160e01b5f52602160045260245ffd5b9052565b6001600160a01b038781168252602082018790528516604082015260c08101611cf56060830186611ca9565b921515608082015260a00152949350505050565b602080825282518282018190525f918401906040840190835b81811015611c4d57835180516001600160a01b039081168552602080830151908601526040808301519091169085015260608082015190611d6590860182611ca9565b5060808181015115159085015260a090810151908401526020939093019260c090920191600101611d22565b634e487b7160e01b5f52604160045260245ffd5b5f5f5f60608486031215611db7575f5ffd5b8351611dc281611ab5565b602085015190935067ffffffffffffffff811115611dde575f5ffd5b8401601f81018613611dee575f5ffd5b805167ffffffffffffffff811115611e0857611e08611d91565b604051601f8201601f19908116603f0116810167ffffffffffffffff81118282101715611e3757611e37611d91565b604052818152828201602001881015611e4e575f5ffd5b8160208401602083015e5f91810160200191909152604095909501519396949550929392505050565b6020808252601190820152702737ba1031b7b6b830b73c9037bbb732b960791b604082015260600190565b6020808252600d908201526c24b73b30b634b2103a37b5b2b760991b604082015260600190565b634e487b7160e01b5f52603260045260245ffd5b634e487b7160e01b5f52601160045260245ffd5b80820180821115611f0457611f04611edd565b92915050565b5f60018201611f1b57611f1b611edd565b5060010190565b8381526001600160a01b038316602082015260608101611f456040830184611ca9565b949350505050565b5f60208284031215611f5d575f5ffd5b5051919050565b5f60208284031215611f74575f5ffd5b81518015158114611bc8575f5ffdfea2646970667358221220d251b69a49f680df47b47181a8a31dd7201f0c6a6147726e7c3bf6b5d3bd725264736f6c634300081e0033","linkReferences":{}},"methodIdentifiers":{"EURC()":"aabfa37d","EURC_DECIMALS()":"7b4e2be7","USDC()":"89a30271","USDC_DECIMALS()":"c1419def","addEmployee(uint256,address,uint256,address,uint8)":"5bd035bb","batchPayments(uint256,uint256)":"1a5bdffd","companyEmployees(uint256,uint256)":"67335576","companyRegistry()":"c51aba2b","createPayrollBatch(uint256,uint256,address)":"135f5faf","deactivateEmployee(uint256,uint256)":"64d182a4","employeePayments(address,uint256)":"0c1384be","executePayroll(uint256)":"5fbf253e","getBatchPayments(uint256)":"e1948c25","getCompanyEmployees(uint256)":"8363dcd7","getEmployeeCount(uint256)":"40823c2e","getEmployeePayments(address)":"4851319c","payrollBatchCount()":"12c52d3d","payrollBatches(uint256)":"02ebf37e","updateEmployee(uint256,uint256,uint256,address,uint8)":"1d49ff5d"},"id":2}